:100000000C942A000C9434000C9434000C943400AA
:100010000C9434000C9434000C9434000C94340090
:100020000C9434000C9434000C9434000C94340080
:100030000C9434000C9434000C9434000C94340070
:100040000C9434000C9434000C9434000C94340060
:100050000C94340011241FBECFE5D4E0DEBFCDBF29
:100060000E943C000C947B000C94000085B58966CE
:1000700085BD8FEF81BB08958FEF81BB8ABB82BBAB
:100080001BBA0E94360013BC80E090E02FEF3FE7E0
:10009000C89B08C00196E7E8F3E13197F1F700C08B
:1000A000000083BDC89B0DC08A35910554F487E8D4
:1000B00093E10197F1F700C0000033BD8FE790E0B6
:1000C00007C08F3F910521F01CF023BD8FEF90E01A
:1000D000C99B08C00197E7E8F3E13197F1F700C049
:1000E000000083BD803891059CF6C899D1CF13BC20
:0A00F00080E090E0CDCFF894FFCF40
:00000001FF
